{
  "contractName": "eth_savings_bank",
  "abi": [
    {
      "constant": true,
      "inputs": [],
      "name": "admin",
      "outputs": [
        {
          "name": "",
          "type": "address"
        }
      ],
      "payable": false,
      "stateMutability": "view",
      "type": "function"
    },
    {
      "inputs": [
        {
          "name": "_Firstname",
          "type": "string"
        },
        {
          "name": "_middlename",
          "type": "string"
        },
        {
          "name": "_lastname",
          "type": "string"
        },
        {
          "name": "_sex",
          "type": "string"
        },
        {
          "name": "_email",
          "type": "string"
        },
        {
          "name": "_phoneNumber",
          "type": "string"
        }
      ],
      "payable": true,
      "stateMutability": "payable",
      "type": "constructor"
    },
    {
      "payable": true,
      "stateMutability": "payable",
      "type": "fallback"
    },
    {
      "anonymous": false,
      "inputs": [
        {
          "indexed": true,
          "name": "_user",
          "type": "address"
        }
      ],
      "name": "registered",
      "type": "event"
    },
    {
      "anonymous": false,
      "inputs": [
        {
          "indexed": true,
          "name": "_user",
          "type": "address"
        }
      ],
      "name": "edited",
      "type": "event"
    },
    {
      "anonymous": false,
      "inputs": [
        {
          "indexed": true,
          "name": "_user",
          "type": "address"
        },
        {
          "indexed": false,
          "name": "AmountWithdrawn",
          "type": "uint256"
        }
      ],
      "name": "WithdrawSuccessful",
      "type": "event"
    },
    {
      "anonymous": false,
      "inputs": [
        {
          "indexed": true,
          "name": "_user",
          "type": "address"
        },
        {
          "indexed": false,
          "name": "AmountDeposited",
          "type": "uint256"
        }
      ],
      "name": "DepositSuccessful",
      "type": "event"
    },
    {
      "constant": false,
      "inputs": [
        {
          "name": "amount",
          "type": "uint256"
        }
      ],
      "name": "DepositFunds",
      "outputs": [
        {
          "name": "",
          "type": "bool"
        }
      ],
      "payable": true,
      "stateMutability": "payable",
      "type": "function"
    },
    {
      "constant": true,
      "inputs": [
        {
          "name": "_addy",
          "type": "address"
        }
      ],
      "name": "getAmountInSavings",
      "outputs": [
        {
          "name": "",
          "type": "uint256"
        }
      ],
      "payable": false,
      "stateMutability": "view",
      "type": "function"
    },
    {
      "constant": false,
      "inputs": [
        {
          "name": "_value",
          "type": "uint256"
        }
      ],
      "name": "WithdrawFunds",
      "outputs": [
        {
          "name": "",
          "type": "bool"
        }
      ],
      "payable": true,
      "stateMutability": "payable",
      "type": "function"
    },
    {
      "constant": true,
      "inputs": [
        {
          "name": "_user",
          "type": "address"
        }
      ],
      "name": "GetUserInfo",
      "outputs": [
        {
          "name": "_firstname",
          "type": "string"
        },
        {
          "name": "_middlename",
          "type": "string"
        },
        {
          "name": "_lastname",
          "type": "string"
        },
        {
          "name": "_sex",
          "type": "string"
        },
        {
          "name": "_email",
          "type": "string"
        },
        {
          "name": "_phone",
          "type": "string"
        }
      ],
      "payable": false,
      "stateMutability": "view",
      "type": "function"
    },
    {
      "constant": true,
      "inputs": [],
      "name": "checkContractBalance",
      "outputs": [
        {
          "name": "",
          "type": "uint256"
        }
      ],
      "payable": false,
      "stateMutability": "view",
      "type": "function"
    },
    {
      "constant": true,
      "inputs": [
        {
          "name": "_user",
          "type": "address"
        }
      ],
      "name": "getTotalAmountSaved",
      "outputs": [
        {
          "name": "",
          "type": "uint256"
        }
      ],
      "payable": false,
      "stateMutability": "view",
      "type": "function"
    },
    {
      "constant": true,
      "inputs": [
        {
          "name": "_user",
          "type": "address"
        }
      ],
      "name": "getTotalAmountWithdrawn",
      "outputs": [
        {
          "name": "",
          "type": "uint256"
        }
      ],
      "payable": false,
      "stateMutability": "view",
      "type": "function"
    },
    {
      "constant": true,
      "inputs": [],
      "name": "getTotalWithdraws",
      "outputs": [
        {
          "name": "",
          "type": "uint256"
        }
      ],
      "payable": false,
      "stateMutability": "view",
      "type": "function"
    },
    {
      "constant": true,
      "inputs": [],
      "name": "getTotalDeposits",
      "outputs": [
        {
          "name": "",
          "type": "uint256"
        }
      ],
      "payable": false,
      "stateMutability": "view",
      "type": "function"
    },
    {
      "constant": true,
      "inputs": [],
      "name": "getTotalUsers",
      "outputs": [
        {
          "name": "",
          "type": "uint256"
        }
      ],
      "payable": false,
      "stateMutability": "view",
      "type": "function"
    },
    {
      "constant": false,
      "inputs": [
        {
          "name": "newUser",
          "type": "address"
        },
        {
          "name": "_Firstname",
          "type": "string"
        },
        {
          "name": "_middlename",
          "type": "string"
        },
        {
          "name": "_lastname",
          "type": "string"
        },
        {
          "name": "_sex",
          "type": "string"
        },
        {
          "name": "_email",
          "type": "string"
        },
        {
          "name": "_phoneNumber",
          "type": "string"
        }
      ],
      "name": "registerUser",
      "outputs": [
        {
          "name": "",
          "type": "bool"
        }
      ],
      "payable": false,
      "stateMutability": "nonpayable",
      "type": "function"
    },
    {
      "constant": false,
      "inputs": [
        {
          "name": "newUser",
          "type": "address"
        },
        {
          "name": "_Firstname",
          "type": "string"
        },
        {
          "name": "_middlename",
          "type": "string"
        },
        {
          "name": "_lastname",
          "type": "string"
        },
        {
          "name": "_sex",
          "type": "string"
        },
        {
          "name": "_email",
          "type": "string"
        },
        {
          "name": "_phoneNumber",
          "type": "string"
        }
      ],
      "name": "editRegisteredUser",
      "outputs": [
        {
          "name": "",
          "type": "bool"
        }
      ],
      "payable": false,
      "stateMutability": "nonpayable",
      "type": "function"
    }
  ],
  "bytecode": "0x60806040526040516200251338038062002513833981018060405260c08110156200002957600080fd5b8101908080516401000000008111156200004257600080fd5b820160208101848111156200005657600080fd5b81516401000000008111828201871017156200007157600080fd5b505092919060200180516401000000008111156200008e57600080fd5b82016020810184811115620000a257600080fd5b8151640100000000811182820187101715620000bd57600080fd5b50509291906020018051640100000000811115620000da57600080fd5b82016020810184811115620000ee57600080fd5b81516401000000008111828201871017156200010957600080fd5b505092919060200180516401000000008111156200012657600080fd5b820160208101848111156200013a57600080fd5b81516401000000008111828201871017156200015557600080fd5b505092919060200180516401000000008111156200017257600080fd5b820160208101848111156200018657600080fd5b8151640100000000811182820187101715620001a157600080fd5b50509291906020018051640100000000811115620001be57600080fd5b82016020810184811115620001d257600080fd5b8151640100000000811182820187101715620001ed57600080fd5b5050929190505050336000806101000a8154816001600160a01b0302191690836001600160a01b0316021790555060008060009054906101000a90046001600160a01b03169050606087905060608790506060879050606087905060608790506060879050600160008154809291906001019190505550600060015490506040518060400160405280828152602001896001600160a01b0316815250600260008a6001600160a01b03166001600160a01b031681526020019081526020016000206000820151816000015560208201518160010160006101000a8154816001600160a01b0302191690836001600160a01b0316021790555090505080600260008a6001600160a01b03166001600160a01b031681526020019081526020016000206000018190555087600260008a6001600160a01b03166001600160a01b0316815260200190815260200160002060010160006101000a8154816001600160a01b0302191690836001600160a01b031602179055506040518060c0016040528088815260200187815260200186815260200185815260200184815260200183815250600260008a6001600160a01b03166001600160a01b0316815260200190815260200160002060020160008a6001600160a01b03166001600160a01b031681526020019081526020016000206000820151816000019080519060200190620003f892919062000521565b50602082810151805162000413926001850192019062000521565b50604082015180516200043191600284019160209091019062000521565b50606082015180516200044f91600384019160209091019062000521565b50608082015180516200046d91600484019160209091019062000521565b5060a082015180516200048b91600584019160209091019062000521565b50506000805460048054600181019091557f8a35acfbc15ff81a39ae7d344fd709f28e8600b4aa8c65c6b64bfe7fe36bd19b0180546001600160a01b0319166001600160a01b0392831617905581548116825260036020908152604080842084905583548316845260078252808420849055835490921683526008905281205550620005c69d5050505050505050505050505050565b828054600181600116156101000203166002900490600052602060002090601f016020900481019282601f106200056457805160ff191683800117855562000594565b8280016001018555821562000594579182015b828111156200059457825182559160200191906001019062000577565b50620005a2929150620005a6565b5090565b620005c391905b80821115620005a25760008155600101620005ad565b90565b611f3d80620005d66000396000f3fe6080604052600436106100c25760003560e01c8063aa1ffbd61161007f578063dda0c9a711610059578063dda0c9a714610b09578063ea9d44ae14610b3c578063f851a44014610b59578063f9b9a62614610b8a576100c2565b8063aa1ffbd614610a86578063c67387b814610ab9578063c77695c314610ad6576100c2565b8063168a4822146100c45780632c9387f6146100eb57806350312c9e146103945780635a380597146103a95780639be572f6146107175780639e515fb51461072c575b005b3480156100d057600080fd5b506100d9610b9f565b60408051918252519081900360200190f35b3480156100f757600080fd5b5061011e6004803603602081101561010e57600080fd5b50356001600160a01b0316610c0a565b6040518080602001806020018060200180602001806020018060200187810387528d818151815260200191508051906020019080838360005b8381101561016f578181015183820152602001610157565b50505050905090810190601f16801561019c5780820380516001836020036101000a031916815260200191505b5087810386528c5181528c516020918201918e019080838360005b838110156101cf5781810151838201526020016101b7565b50505050905090810190601f1680156101fc5780820380516001836020036101000a031916815260200191505b5087810385528b5181528b516020918201918d019080838360005b8381101561022f578181015183820152602001610217565b50505050905090810190601f16801561025c5780820380516001836020036101000a031916815260200191505b5087810384528a5181528a516020918201918c019080838360005b8381101561028f578181015183820152602001610277565b50505050905090810190601f1680156102bc5780820380516001836020036101000a031916815260200191505b5087810383528951815289516020918201918b019080838360005b838110156102ef5781810151838201526020016102d7565b50505050905090810190601f16801561031c5780820380516001836020036101000a031916815260200191505b5087810382528851815288516020918201918a019080838360005b8381101561034f578181015183820152602001610337565b50505050905090810190601f16801561037c5780820380516001836020036101000a031916815260200191505b509c5050505050505050505050505060405180910390f35b3480156103a057600080fd5b506100d96110f2565b3480156103b557600080fd5b50610703600480360360e08110156103cc57600080fd5b6001600160a01b038235169190810190604081016020820135600160201b8111156103f657600080fd5b82018360208201111561040857600080fd5b803590602001918460018302840111600160201b8311171561042957600080fd5b91908080601f0160208091040260200160405190810160405280939291908181526020018383808284376000920191909152509295949360208101935035915050600160201b81111561047b57600080fd5b82018360208201111561048d57600080fd5b803590602001918460018302840111600160201b831117156104ae57600080fd5b91908080601f0160208091040260200160405190810160405280939291908181526020018383808284376000920191909152509295949360208101935035915050600160201b81111561050057600080fd5b82018360208201111561051257600080fd5b803590602001918460018302840111600160201b8311171561053357600080fd5b91908080601f0160208091040260200160405190810160405280939291908181526020018383808284376000920191909152509295949360208101935035915050600160201b81111561058557600080fd5b82018360208201111561059757600080fd5b803590602001918460018302840111600160201b831117156105b857600080fd5b91908080601f0160208091040260200160405190810160405280939291908181526020018383808284376000920191909152509295949360208101935035915050600160201b81111561060a57600080fd5b82018360208201111561061c57600080fd5b803590602001918460018302840111600160201b8311171561063d57600080fd5b91908080601f0160208091040260200160405190810160405280939291908181526020018383808284376000920191909152509295949360208101935035915050600160201b81111561068f57600080fd5b8201836020820111156106a157600080fd5b803590602001918460018302840111600160201b831117156106c257600080fd5b91908080601f0160208091040260200160405190810160405280939291908181526020018383808284376000920191909152509295506110f7945050505050565b604080519115158252519081900360200190f35b34801561072357600080fd5b506100d96112aa565b34801561073857600080fd5b50610703600480360360e081101561074f57600080fd5b6001600160a01b038235169190810190604081016020820135600160201b81111561077957600080fd5b82018360208201111561078b57600080fd5b803590602001918460018302840111600160201b831117156107ac57600080fd5b91908080601f0160208091040260200160405190810160405280939291908181526020018383808284376000920191909152509295949360208101935035915050600160201b8111156107fe57600080fd5b82018360208201111561081057600080fd5b803590602001918460018302840111600160201b8311171561083157600080fd5b91908080601f0160208091040260200160405190810160405280939291908181526020018383808284376000920191909152509295949360208101935035915050600160201b81111561088357600080fd5b82018360208201111561089557600080fd5b803590602001918460018302840111600160201b831117156108b657600080fd5b91908080601f0160208091040260200160405190810160405280939291908181526020018383808284376000920191909152509295949360208101935035915050600160201b81111561090857600080fd5b82018360208201111561091a57600080fd5b803590602001918460018302840111600160201b8311171561093b57600080fd5b91908080601f0160208091040260200160405190810160405280939291908181526020018383808284376000920191909152509295949360208101935035915050600160201b81111561098d57600080fd5b82018360208201111561099f57600080fd5b803590602001918460018302840111600160201b831117156109c057600080fd5b91908080601f0160208091040260200160405190810160405280939291908181526020018383808284376000920191909152509295949360208101935035915050600160201b811115610a1257600080fd5b820183602082011115610a2457600080fd5b803590602001918460018302840111600160201b83111715610a4557600080fd5b91908080601f0160208091040260200160405190810160405280939291908181526020018383808284376000920191909152509295506112b0945050505050565b348015610a9257600080fd5b506100d960048036036020811015610aa957600080fd5b50356001600160a01b03166116a0565b61070360048036036020811015610acf57600080fd5b503561172e565b348015610ae257600080fd5b506100d960048036036020811015610af957600080fd5b50356001600160a01b0316611905565b348015610b1557600080fd5b506100d960048036036020811015610b2c57600080fd5b50356001600160a01b0316611987565b61070360048036036020811015610b5257600080fd5b50356119f1565b348015610b6557600080fd5b50610b6e611bf5565b604080516001600160a01b039092168252519081900360200190f35b348015610b9657600080fd5b506100d9611c04565b600080546001600160a01b03163314610c025760408051600160e51b62461bcd02815260206004820181905260248201527f4164647265737320646f6573206e6f742062656c6f6e6720746f2041646d696e604482015290519081900360640190fd5b506005545b90565b606080808080806001600160a01b038716610c5d5760408051600160e51b62461bcd0281526020600482015260176024820152600080516020611ef2833981519152604482015290519081900360640190fd5b336001600160a01b03881614610cbd5760408051600160e51b62461bcd02815260206004820152601160248201527f41646472657373206d6973736d61746368000000000000000000000000000000604482015290519081900360640190fd5b6000610cc888611c6e565b90508015611066576001600160a01b0388166000908152600260208181526040808420808401835293819020805482516001821615610100026000190190911694909404601f81018490048402850184019092528184529291839190830182828015610d755780601f10610d4a57610100808354040283529160200191610d75565b820191906000526020600020905b815481529060010190602001808311610d5857829003601f168201915b50505050509850806001018054600181600116156101000203166002900480601f016020809104026020016040519081016040528092919081815260200182805460018160011615610100020316600290048015610e145780601f10610de957610100808354040283529160200191610e14565b820191906000526020600020905b815481529060010190602001808311610df757829003601f168201915b50505060028085018054604080516020601f6000196101006001871615020190941695909504928301859004850281018501909152818152959d509093509150830182828015610ea55780601f10610e7a57610100808354040283529160200191610ea5565b820191906000526020600020905b815481529060010190602001808311610e8857829003601f168201915b5050505060038301805460408051602060026001851615610100026000190190941693909304601f8101849004840282018401909252818152949b50919250830182828015610f355780601f10610f0a57610100808354040283529160200191610f35565b820191906000526020600020905b815481529060010190602001808311610f1857829003601f168201915b5050505060048301805460408051602060026001851615610100026000190190941693909304601f8101849004840282018401909252818152949a50919250830182828015610fc55780601f10610f9a57610100808354040283529160200191610fc5565b820191906000526020600020905b815481529060010190602001808311610fa857829003601f168201915b5050505060058301805460408051602060026001851615610100026000190190941693909304601f81018490048402820184019092528181529499509192508301828280156110555780601f1061102a57610100808354040283529160200191611055565b820191906000526020600020905b81548152906001019060200180831161103857829003601f168201915b509397506110e99650505050505050565b50506040805180820182526004808252600160e21b6313955313026020808401829052845180860186528381528082018390528551808701875284815280830184905286518088018852858152808401859052875180890189528681528085018690528851808a0190995295885292870193909352939950929750955090935091505b91939550919395565b303190565b60003361113c5760408051600160e51b62461bcd0281526020600482015260176024820152600080516020611ef2833981519152604482015290519081900360640190fd5b87336001600160a01b0382161461119d5760408051600160e51b62461bcd02815260206004820152601660248201527f557365722061646472657373206d6973736d6174636800000000000000000000604482015290519081900360640190fd5b60006111a882611c6e565b90508015611298576001600160a01b038216600090815260026020818152604080842092830182529092208b51919290916111e8918391908e0190611e34565b5089516111fe90600183019060208d0190611e34565b50885161121490600283019060208c0190611e34565b50875161122a90600383019060208b0190611e34565b50865161124090600483019060208a0190611e34565b5085516112569060058301906020890190611e34565b506040516001600160a01b038516907fdf7c37ad3c061575d230092be36af29541b8223acf7bca67ff547eb0e846252a90600090a2600194505050505061129f565b6000925050505b979650505050505050565b60045490565b6000336112f55760408051600160e51b62461bcd0281526020600482015260176024820152600080516020611ef2833981519152604482015290519081900360640190fd5b336001600160a01b038916146113555760408051600160e51b62461bcd02815260206004820152601660248201527f557365722061646472657373206d6973736d6174636800000000000000000000604482015290519081900360640190fd5b87600061136182611c6e565b905080156113745760009250505061129f565b6060899050606089905060608990506060899050606089905060608990506001600081548092919060010191905055506000600154905060405180604001604052808281526020018a6001600160a01b0316815250600260008b6001600160a01b03166001600160a01b031681526020019081526020016000206000820151816000015560208201518160010160006101000a8154816001600160a01b0302191690836001600160a01b0316021790555090505080600260008b6001600160a01b03166001600160a01b031681526020019081526020016000206000018190555088600260008b6001600160a01b03166001600160a01b0316815260200190815260200160002060010160006101000a8154816001600160a01b0302191690836001600160a01b031602179055506040518060c0016040528088815260200187815260200186815260200185815260200184815260200183815250600260008b6001600160a01b03166001600160a01b0316815260200190815260200160002060020160008b6001600160a01b03166001600160a01b031681526020019081526020016000206000820151816000019080519060200190611536929190611e34565b50602082810151805161154f9260018501920190611e34565b506040820151805161156b916002840191602090910190611e34565b5060608201518051611587916003840191602090910190611e34565b50608082015180516115a3916004840191602090910190611e34565b5060a082015180516115bf916005840191602090910190611e34565b5050506001600160a01b03891660008181526003602090815260408083208390556007825280832083905560089091528120819055600480546001810182559082527f8a35acfbc15ff81a39ae7d344fd709f28e8600b4aa8c65c6b64bfe7fe36bd19b0180546001600160a01b03191690921790915561163e8a611c6e565b9050801561168d576040516001600160a01b038b16907fb2dd5c078730dc5316cfb1708819b2dc95f3188fb3fb5d823d7534d685a435b990600090a260019a505050505050505050505061129f565b60009a505050505050505050505061129f565b60006001600160a01b0382166116ee5760408051600160e51b62461bcd0281526020600482015260176024820152600080516020611ef2833981519152604482015290519081900360640190fd5b8160006116fa82611c6e565b9050801561172257506001600160a01b03166000908152600760205260409020549050611729565b6000925050505b919050565b6000336117735760408051600160e51b62461bcd0281526020600482015260176024820152600080516020611ef2833981519152604482015290519081900360640190fd5b8133600061178082611c6e565b905080156118f1576001600160a01b0382166000908152600360205260409020548311156117e257604051600160e51b62461bcd028152600401808060200182810382526025815260200180611ecd6025913960400191505060405180910390fd5b6001600160a01b03821660009081526008602052604090205461180b908463ffffffff611d7016565b6001600160a01b038316600090815260086020908152604080832093909355600390522054611840908463ffffffff611dd416565b6001600160a01b03831660009081526003602052604090205560065461186c908463ffffffff611d7016565b60065561188030318663ffffffff611dd416565b50604051339086156108fc029087906000818181858888f193505050501580156118ae573d6000803e3d6000fd5b5060408051848152905133917f84e742a3ea03623687a5febaa797636d728230721d4b3d1405d19fbbc16298d9919081900360200190a260019350505050611729565b60009350505050611729565b505050919050565b60006001600160a01b0382166119535760408051600160e51b62461bcd0281526020600482015260176024820152600080516020611ef2833981519152604482015290519081900360640190fd5b81600061195f82611c6e565b9050801561172257506001600160a01b03166000908152600860205260409020549050611729565b60006001600160a01b0382166119d55760408051600160e51b62461bcd0281526020600482015260176024820152600080516020611ef2833981519152604482015290519081900360640190fd5b506001600160a01b031660009081526003602052604090205490565b6000803411611a4a5760408051600160e51b62461bcd02815260206004820152601960248201527f73656e742076616c75652063616e6e6f74206265207a65726f00000000000000604482015290519081900360640190fd5b33611a8d5760408051600160e51b62461bcd0281526020600482015260176024820152600080516020611ef2833981519152604482015290519081900360640190fd5b813414611ae45760408051600160e51b62461bcd02815260206004820181905260248201527f53656e742076616c7565206973206e6f742073616d6520617320616d6f756e74604482015290519081900360640190fd5b33826000611af183611c6e565b905080156118f15760405130903480156108fc02916000818181858888f19350505050158015611b25573d6000803e3d6000fd5b506001600160a01b038316600090815260076020526040902054611b4f908363ffffffff611d7016565b6001600160a01b038416600090815260076020908152604080832093909355600390522054611b84908363ffffffff611d7016565b6001600160a01b038416600090815260036020526040902055600554611bb0908363ffffffff611d7016565b60055560408051838152905133917fb3ef81558ed1a50072a492984535a009da8b129c749500b387f1e5f4886bdde5919081900360200190a260019350505050611729565b6000546001600160a01b031681565b600080546001600160a01b03163314611c675760408051600160e51b62461bcd02815260206004820181905260248201527f4164647265737320646f6573206e6f742062656c6f6e6720746f2041646d696e604482015290519081900360640190fd5b5060065490565b600060606004805480602002602001604051908101604052809291908181526020018280548015611cc857602002820191906000526020600020905b81546001600160a01b03168152600190910190602001808311611caa575b505083519394506000925050505b818110156118fd57846001600160a01b0316838281518110611cf457fe5b60200260200101516001600160a01b03161415611d175760019350505050611729565b611d2882600163ffffffff611dd416565b811415611d6857846001600160a01b0316838281518110611d4557fe5b60200260200101516001600160a01b031614156118f15760019350505050611729565b600101611cd6565b600082820183811015611dcd5760408051600160e51b62461bcd02815260206004820152601b60248201527f536166654d6174683a206164646974696f6e206f766572666c6f770000000000604482015290519081900360640190fd5b9392505050565b600082821115611e2e5760408051600160e51b62461bcd02815260206004820152601e60248201527f536166654d6174683a207375627472616374696f6e206f766572666c6f770000604482015290519081900360640190fd5b50900390565b828054600181600116156101000203166002900490600052602060002090601f016020900481019282601f10611e7557805160ff1916838001178555611ea2565b82800160010185558215611ea2579182015b82811115611ea2578251825591602001919060010190611e87565b50611eae929150611eb2565b5090565b610c0791905b80821115611eae5760008155600101611eb856fe496e73756666696369656e742066756e647320696e20736176696e67732062616c616e6365416464726573732073656e7420697320696e76616c6964000000000000000000a165627a7a72305820ba413d5e94cb7ac069618833030068fd6dc4a67b99879b18eec7fd4d82a7e2540029",
  "source": "pragma solidity >=0.4.21 <0.6.0;\r\n\r\nimport \"../open_zepplin_contracts/math/SafeMath.sol\";\r\n\r\n/*\r\n*CONTRACT NAME: ETH SAVINGS SMART CONTRACT\r\n*\r\n*SOFTWARE DEVELOPER: MOFEHINTOLU O. MUMUNI\r\n*\r\n*EMAIL: hello@mofehintolmumuni.com | mofehintolumumuni@gmail.com\r\n*\r\n*GITHUB: www.github.com/Mofehintolu-mumuni\r\n*\r\n*/\r\n\r\n  contract eth_savings_bank \r\n    {\r\n     using SafeMath for uint256;\r\n    //set admin address\r\n    address payable public admin;\r\n\r\n  struct BioData\r\n    {\r\n      string FirstName;\r\n      string MiddleName;\r\n      string LastName;\r\n      string Sex;\r\n      string Email;\r\n      string PhoneNumber;\r\n    }\r\n\r\n    struct userDetails\r\n    {\r\n      uint id;\r\n      address userAddress;\r\n      mapping(address => BioData) userBioDetails;\r\n    }\r\n\r\n    uint private userId;\r\n\r\n//keep track of user details\r\n   mapping(address => userDetails) CompleteDetails;\r\n\r\n//keep track of ETH value saved by each user\r\n mapping(address => uint256) userSavingsBalance;\r\n\r\n  //keep track of all registered users\r\n   address[] private registeredUsers;\r\n\r\n  //keep track of total amount saved\r\n   uint256 totalAmountDeposited;\r\n   \r\n   //keep track of total amount withdrawn\r\n   uint256 totalAmountWithdrawn;\r\n\r\n//log users savings\r\n  mapping(address => uint256) TotalSavings;\r\n\r\n//log users withdrawals\r\n  mapping(address => uint256) TotalWithdrawals;\r\n \r\n    constructor(string memory _Firstname,\r\n    string memory _middlename,string memory _lastname,\r\n    string memory _sex,string memory _email,\r\n    string memory _phoneNumber)\r\n    public \r\n    payable{\r\n    admin = msg.sender;\r\n     \r\n   address RegAddress = admin;\r\n\r\n   string memory firstname = _Firstname;\r\n   string memory middlename = _middlename;\r\n   string memory lastname = _lastname;\r\n   string memory sex = _sex;\r\n   string memory email = _email;\r\n   string memory phoneNumber = _phoneNumber;\r\n\r\n  userId++;\r\n\r\n  uint regID = userId;\r\n\r\n//userDetails storage newUserInfoStruct = userDetails(regID,RegAddress);\r\n\r\n CompleteDetails[RegAddress] = userDetails(regID,RegAddress);\r\n\r\nCompleteDetails[RegAddress].id = regID;\r\n\r\nCompleteDetails[RegAddress].userAddress = RegAddress;\r\n\r\nCompleteDetails[RegAddress].userBioDetails[RegAddress] = BioData({FirstName: firstname, \r\n   MiddleName: middlename,\r\n   LastName: lastname,\r\n   Sex:sex,\r\n   Email:email,\r\n   PhoneNumber: phoneNumber}\r\n   );\r\n    \r\n     registeredUsers.push(admin);\r\n\r\n    //keep track of ETH value saved by each user\r\n    userSavingsBalance[admin] = 0;\r\n\r\n    //log users savings\r\n    TotalSavings[admin] = 0;\r\n\r\n    //log users withdrawals\r\n    TotalWithdrawals[admin] = 0;\r\n    }\r\n\r\n\r\n//check value sent\r\n    modifier checkSentValue()\r\n    {\r\n        require(msg.value > 0, \"sent value cannot be zero\");\r\n        _;\r\n    }\r\n\r\n//check for non-zero or invalid address\r\n    modifier preventZeroAddress()\r\n    {\r\n      require(address(msg.sender) != address(0), \"Address sent is invalid\");\r\n      _;\r\n    }\r\n\r\n//check address belongs to admin\r\n     modifier checkAdmin()\r\n    {\r\n      require(address(msg.sender) == address(admin), \"Address does not belong to Admin\");\r\n      _;\r\n    }\r\n    \r\n    event registered(\r\n    address indexed _user\r\n    );\r\n\r\n    event edited(\r\n    address indexed _user\r\n    ); \r\n\r\n    event WithdrawSuccessful(\r\n    address indexed _user,\r\n    uint256 AmountWithdrawn\r\n    );\r\n\r\n    event DepositSuccessful(\r\n    address indexed _user,\r\n    uint256 AmountDeposited\r\n    );\r\n  \r\n//check if user details is on the contract storage\r\n   function checkIfUserIsRegistered(address _userAddress)internal view returns(bool)\r\n    {\r\n   address[] memory regUsers = registeredUsers;\r\n    //get array length\r\n    uint arrayLength = regUsers.length;\r\n    //run forloop\r\n    for(uint i = 0; i < arrayLength; i++)\r\n    {\r\n     if(regUsers[i] == _userAddress)\r\n     {\r\n      return true;\r\n     }\r\n     else\r\n     {\r\n       if(i == (arrayLength.sub(1)))\r\n       {\r\n          if(regUsers[i] == _userAddress)\r\n          {\r\n            return true;\r\n          }\r\n          else\r\n          {\r\n            return false;\r\n          }\r\n       }\r\n     }\r\n    }\r\n   }\r\n\r\n  //deposit funds to ETH savings\r\n    function DepositFunds(uint256 amount)public checkSentValue payable returns(bool)\r\n    {\r\n      //prevent zero address\r\n      require(address(msg.sender) != address(0), \"Address sent is invalid\");\r\n      //check if sent value is same as amount\r\n     require(msg.value == amount,\"Sent value is not same as amount\");\r\n     //check if user has balance\r\n       // require(address(msg.sender).balance >= msg.value, \"Insufficient funds\");\r\n\r\n       //declare a local variable to store msg.sender\r\n      address _userAddress = msg.sender;\r\n     //declare a local variable to store amount sent\r\n      uint256 _amount = amount;\r\n\r\n        //check savers array struct for msg.sender\r\n        bool userRegStatus = checkIfUserIsRegistered( _userAddress);\r\n\r\n        if(userRegStatus)\r\n        {\r\n        //send savings funds to storage\r\n        address(this).transfer(msg.value);\r\n\r\n        TotalSavings[_userAddress] = TotalSavings[_userAddress].add(_amount);\r\n\r\n        userSavingsBalance[_userAddress] = userSavingsBalance[_userAddress].add(_amount);\r\n\r\n        totalAmountDeposited = totalAmountDeposited.add(_amount);\r\n      \r\n        emit DepositSuccessful(msg.sender,_amount);\r\n        return true;\r\n        }\r\n        else\r\n        {\r\n          return false;\r\n        }\r\n        }\r\n  \r\n    //check amount in savings using address\r\n    function getAmountInSavings (address _addy)public view  returns(uint256)\r\n    {\r\n  require(address(_addy) != address(0), \"Address sent is invalid\");\r\n    uint256 balance = userSavingsBalance[_addy];\r\n    return balance;\r\n    }\r\n\r\n//withdraw funds from ETH savings\r\n    function WithdrawFunds(uint256 _value)public  payable  preventZeroAddress returns(bool)\r\n    {\r\n      uint256 _amount = _value;\r\n         //declare a local variable to store msg.sender\r\n      address _userAddress = msg.sender;\r\n   //check savers array struct for msg.sender\r\n        bool userRegStatus = checkIfUserIsRegistered( _userAddress);\r\n\r\n        if(userRegStatus)\r\n        {\r\n           //check if amount to withdraw is feasible\r\n      require(userSavingsBalance[_userAddress] >= _amount,\"Insufficient funds in savings balance\");\r\n       //log users withdrawals\r\n\r\n        TotalWithdrawals[_userAddress] = TotalWithdrawals[_userAddress].add(_amount);\r\n\r\n        userSavingsBalance[_userAddress] = userSavingsBalance[_userAddress].sub(_amount);\r\n\r\n        totalAmountWithdrawn = totalAmountWithdrawn.add(_amount);\r\n      \r\n      //transfer funds\r\n            address(this).balance.sub(_value);\r\n            msg.sender.transfer(_value);\r\n     \r\n       \r\n         emit WithdrawSuccessful(msg.sender,_amount);\r\n        return true;\r\n        }\r\n        else\r\n        {\r\n          return false;\r\n        }\r\n    }\r\n\r\n\r\n//get user info and return struct values\r\n    function GetUserInfo(address _user)\r\n    public view \r\n    returns(string memory _firstname,string memory _middlename,string memory _lastname,string memory _sex,string memory _email,string memory _phone)\r\n    {\r\n    require(address(_user) != address(0), \"Address sent is invalid\");\r\n    require(msg.sender == _user, \"Address missmatch\");\r\n   \r\n   //check regusers array struct for msg.sender\r\n   bool userRegStatus = checkIfUserIsRegistered( _user);\r\n\r\n   if(userRegStatus)\r\n   {\r\n userDetails storage newUserDetailsStruct = CompleteDetails[_user];\r\n BioData storage newUserBioDataStruct = newUserDetailsStruct.userBioDetails[_user];\r\n\r\n    _firstname = newUserBioDataStruct.FirstName;\r\n    _middlename = newUserBioDataStruct.MiddleName;\r\n    _lastname = newUserBioDataStruct.LastName;\r\n    _sex = newUserBioDataStruct.Sex;\r\n    _email = newUserBioDataStruct.Email;\r\n    _phone = newUserBioDataStruct.PhoneNumber;\r\n    return(_firstname,_middlename,_lastname,_sex,_email,_phone);\r\n   }\r\n   else\r\n   {\r\n     _firstname = \"NULL\";\r\n    _middlename = \"NULL\";\r\n    _lastname = \"NULL\";\r\n    _sex = \"NULL\";\r\n    _email = \"NULL\";\r\n    _phone = \"NULL\";\r\n     return(_firstname,_middlename,_lastname,_sex,_email,_phone);\r\n   }\r\n    }\r\n \r\n //check contract ETH balance\r\nfunction checkContractBalance() public view returns (uint256)\r\n{ \r\n  uint256 SavingBalance = address(this).balance;  \r\n  return SavingBalance;\r\n}\r\n\r\n//check and returns the total ETH saved by users\r\nfunction getTotalAmountSaved(address _user) public view returns (uint256)\r\n{\r\nrequire(address(_user) != address(0), \"Address sent is invalid\");\r\naddress RegAddress = _user;\r\n\r\n//check regusers array struct for msg.sender\r\n   bool userRegStatus = checkIfUserIsRegistered( RegAddress);\r\n\r\n   if(userRegStatus)\r\n   {\r\n    uint256 totalSaved = TotalSavings[RegAddress];\r\n    return totalSaved;\r\n   }\r\n   else\r\n   {\r\n    return 0;\r\n   }\r\n}\r\n\r\n\r\n//check and returns the total ETH withdrawn by users\r\nfunction getTotalAmountWithdrawn(address _user) public view returns (uint256)\r\n{\r\nrequire(address(_user) != address(0), \"Address sent is invalid\");\r\naddress RegAddress = _user;\r\n\r\n//check regusers array struct for msg.sender\r\n   bool userRegStatus =  checkIfUserIsRegistered( RegAddress);\r\n\r\n   if(userRegStatus)\r\n   {\r\n     uint256 totalWithdraws = TotalWithdrawals[RegAddress];\r\n return totalWithdraws;\r\n   }\r\n   else\r\n   {\r\n    return 0;\r\n   }\r\n}\r\n\r\n//getTotalWithdraws by all users\r\nfunction getTotalWithdraws()public view checkAdmin returns(uint256)\r\n{\r\n uint256 allUserWithdrawals = totalAmountWithdrawn;\r\n return allUserWithdrawals;\r\n}\r\n\r\n//getTotalDeposits by all users\r\nfunction getTotalDeposits()public view checkAdmin returns(uint256)\r\n{\r\n  uint256 allUserDeposits = totalAmountDeposited;\r\n return allUserDeposits;\r\n}\r\n\r\n\r\nfunction getTotalUsers()public view returns(uint256)\r\n{\r\n uint256 TotalRegisteredUsers = registeredUsers.length;\r\n return TotalRegisteredUsers;\r\n}\r\n\r\n\r\n function registerUser(address newUser,string memory _Firstname,string memory _middlename,string memory _lastname,string memory _sex,string memory _email,string memory _phoneNumber)\r\n public\r\n preventZeroAddress\r\n  returns(bool)\r\n    {\r\n   require(msg.sender == newUser,\"User address missmatch\");\r\n\r\n  address RegAddress = newUser;\r\n\r\n   bool checkUserRegStatus = checkIfUserIsRegistered( RegAddress);\r\n\r\n   if(checkUserRegStatus)\r\n   {\r\n   \r\n     return false;\r\n   }\r\n   else\r\n   {\r\n    string memory firstname = _Firstname;\r\n   string memory middlename = _middlename;\r\n   string memory lastname = _lastname;\r\n   string memory sex = _sex;\r\n   string memory email = _email;\r\n   string memory phoneNumber = _phoneNumber;\r\n\r\n  userId++;\r\n  uint regID = userId;\r\n\r\n//userDetails storage newUserInfoStruct = userDetails(regID,RegAddress);\r\n CompleteDetails[RegAddress] = userDetails(regID,RegAddress);\r\nCompleteDetails[RegAddress].id = regID;\r\nCompleteDetails[RegAddress].userAddress = RegAddress;\r\nCompleteDetails[RegAddress].userBioDetails[RegAddress] = BioData({FirstName: firstname, \r\n   MiddleName: middlename,\r\n   LastName: lastname,\r\n   Sex:sex,\r\n   Email:email,\r\n   PhoneNumber: phoneNumber}\r\n   );\r\n\r\n//register user details on other mappings\r\n//keep track of ETH value saved by each user\r\nuserSavingsBalance[RegAddress] = 0;\r\n\r\n//log users savings\r\nTotalSavings[RegAddress] = 0;\r\n\r\n//log users withdrawals\r\n  TotalWithdrawals[RegAddress] = 0;\r\n\r\n    //keep track of all registered users\r\nregisteredUsers.push(RegAddress);\r\n\r\n  //check regusers array struct for msg.sender\r\n   bool userRegStatus = checkIfUserIsRegistered( RegAddress);\r\n\r\n   if(userRegStatus)\r\n   {\r\n     emit registered(RegAddress);\r\n\r\n     return true;\r\n   }\r\n   else\r\n   {\r\n     return false;\r\n   }\r\n   }\r\n\r\n  \r\n    }\r\n\r\n\r\nfunction editRegisteredUser(address newUser,string memory _Firstname,string memory _middlename,string memory _lastname,string memory _sex,string memory _email,string memory _phoneNumber)\r\n public\r\n preventZeroAddress\r\n  returns(bool)\r\n    {\r\n  address RegAddress = newUser;\r\n\r\nrequire(msg.sender == newUser,\"User address missmatch\");\r\n\r\n //check regusers array struct for msg.sender\r\n   bool userRegStatus = checkIfUserIsRegistered( RegAddress);\r\n\r\n   if(userRegStatus)\r\n   {\r\n     //get user details\r\n userDetails storage newUserDetailsStruct = CompleteDetails[RegAddress];\r\n \r\n BioData storage newUserBioDataStruct = newUserDetailsStruct.userBioDetails[RegAddress];\r\n\r\nnewUserBioDataStruct.FirstName = _Firstname;\r\n newUserBioDataStruct.MiddleName = _middlename;\r\n newUserBioDataStruct.LastName = _lastname;\r\n newUserBioDataStruct.Sex = _sex;\r\n newUserBioDataStruct.Email = _email;\r\n newUserBioDataStruct.PhoneNumber = _phoneNumber;\r\n\r\n emit edited(RegAddress);\r\n     return true;\r\n   }\r\n   else\r\n   {\r\n     return false;\r\n   }\r\n    }\r\n\r\n//fallback function\r\nfunction() external payable{}\r\n\r\n }\r\n ",
  "sourcePath": "C:/xampp/htdocs/PHP/CRYPTO_FRONTEND/savings_contract_one/contracts/savings_contracts/cryto_savings.sol",
  "compiler": {
    "name": "solc",
    "version": "0.5.8+commit.23d335f2.Emscripten.clang"
  },
  "schemaVersion": "3.0.11",
  "updatedAt": "2019-12-26T19:48:30.903Z",
  "devdoc": {
    "methods": {}
  },
  "userdoc": {
    "methods": {}
  }
}