{
  "contractName": "infura_test",
  "abi": [
    {
      "constant": true,
      "inputs": [],
      "name": "Namer",
      "outputs": [
        {
          "name": "",
          "type": "string"
        }
      ],
      "payable": false,
      "stateMutability": "view",
      "type": "function"
    },
    {
      "constant": true,
      "inputs": [
        {
          "name": "",
          "type": "uint256"
        }
      ],
      "name": "Name_set_store",
      "outputs": [
        {
          "name": "",
          "type": "string"
        }
      ],
      "payable": false,
      "stateMutability": "view",
      "type": "function"
    },
    {
      "constant": true,
      "inputs": [
        {
          "name": "",
          "type": "uint256"
        }
      ],
      "name": "Name_set_count_store",
      "outputs": [
        {
          "name": "",
          "type": "uint256"
        }
      ],
      "payable": false,
      "stateMutability": "view",
      "type": "function"
    },
    {
      "inputs": [],
      "payable": false,
      "stateMutability": "nonpayable",
      "type": "constructor"
    },
    {
      "constant": false,
      "inputs": [
        {
          "name": "_Namer",
          "type": "string"
        }
      ],
      "name": "SetName",
      "outputs": [
        {
          "name": "",
          "type": "bool"
        }
      ],
      "payable": false,
      "stateMutability": "nonpayable",
      "type": "function"
    }
  ],
  "bytecode": "0x608060405234801561001057600080fd5b5060408051808201909152600a81527f5761726d696e67207570000000000000000000000000000000000000000000006020820190815260038054600190810191829055805480820182557fb10e2d527612073b26eecdfd717e6a320cf44b4afac2b0732d9fcbe2b7fa0cf6019190915560028054918201808255600091909152835190926100c1927f405787fa12a823e0f2b7631cc41b3ba8828b3321ca811111fa75cd3aa3bb5ace01916100dd565b505080516100d69060009060208401906100dd565b5050610178565b828054600181600116156101000203166002900490600052602060002090601f016020900481019282601f1061011e57805160ff191683800117855561014b565b8280016001018555821561014b579182015b8281111561014b578251825591602001919060010190610130565b5061015792915061015b565b5090565b61017591905b808211156101575760008155600101610161565b90565b610476806101876000396000f3fe608060405234801561001057600080fd5b506004361061004c5760003560e01c80633459fd7c146100515780634df9dcd3146100ce5780638074fe5114610188578063d416041a146101a5575b600080fd5b6100596101d4565b6040805160208082528351818301528351919283929083019185019080838360005b8381101561009357818101518382015260200161007b565b50505050905090810190601f1680156100c05780820380516001836020036101000a031916815260200191505b509250505060405180910390f35b610174600480360360208110156100e457600080fd5b8101906020810181356401000000008111156100ff57600080fd5b82018360208201111561011157600080fd5b8035906020019184600183028401116401000000008311171561013357600080fd5b91908080601f016020809104026020016040519081016040528093929190818152602001838380828437600092019190915250929550610262945050505050565b604080519115158252519081900360200190f35b6100596004803603602081101561019e57600080fd5b503561031e565b6101c2600480360360208110156101bb57600080fd5b5035610391565b60408051918252519081900360200190f35b6000805460408051602060026001851615610100026000190190941693909304601f8101849004840282018401909252818152929183018282801561025a5780601f1061022f5761010080835404028352916020019161025a565b820191906000526020600020905b81548152906001019060200180831161023d57829003601f168201915b505050505081565b600080600354118015610276575060015415155b61027f57600080fd5b600380546001908101918290558054808201825560009182527fb10e2d527612073b26eecdfd717e6a320cf44b4afac2b0732d9fcbe2b7fa0cf6019190915582516102cf919060208501906103af565b5060028054600181018083556000929092528351610314917f405787fa12a823e0f2b7631cc41b3ba8828b3321ca811111fa75cd3aa3bb5ace019060208601906103af565b5060019392505050565b6002818154811061032b57fe5b600091825260209182902001805460408051601f600260001961010060018716150201909416939093049283018590048502810185019091528181529350909183018282801561025a5780601f1061022f5761010080835404028352916020019161025a565b6001818154811061039e57fe5b600091825260209091200154905081565b828054600181600116156101000203166002900490600052602060002090601f016020900481019282601f106103f057805160ff191683800117855561041d565b8280016001018555821561041d579182015b8281111561041d578251825591602001919060010190610402565b5061042992915061042d565b5090565b61044791905b808211156104295760008155600101610433565b9056fea165627a7a72305820ef71dfdce2935cb7d65d35bb98d685a3351c73bbd56a62b9f81999b458a924f60029",
  "source": "pragma solidity >=0.4.21 <0.6.0;\r\n\r\ncontract infura_test{\r\n\r\nstring public Namer;\r\n\r\nstruct names\r\n{\r\nstring NameSent; \r\n}\r\n\r\nuint[] public Name_set_count_store;\r\n\r\n\r\nstring[] public Name_set_store;\r\n\r\nuint Name_set_counter;\r\n\r\nconstructor()public \r\n{\r\n    string memory _Namer = \"Warming up\";\r\nName_set_counter++;\r\nName_set_count_store.push(Name_set_counter);\r\nName_set_store.push(_Namer);\r\n\r\nNamer = _Namer;\r\n\r\n}\r\n\r\n\r\nmodifier CheckCount()\r\n{\r\n    require((Name_set_counter > 0) && (Name_set_count_store.length > 0));\r\n _;\r\n}\r\n\r\n\r\nfunction SetName(string memory _Namer) CheckCount public returns(bool)\r\n{\r\nName_set_counter++;\r\nName_set_count_store.push(Name_set_counter);\r\nNamer = _Namer;\r\nName_set_store.push(_Namer);\r\n\r\nreturn true;\r\n}\r\n\r\n\r\n\r\n\r\n\r\n\r\n\r\n}",
  "sourcePath": "C:/xampp/htdocs/PHP/CRYPTO_FRONTEND/savings_contract_one/contracts/test_contracts/infura_test.sol",
  "compiler": {
    "name": "solc",
    "version": "0.5.8+commit.23d335f2.Emscripten.clang"
  },
  "schemaVersion": "3.0.11",
  "updatedAt": "2019-12-26T19:23:05.888Z",
  "devdoc": {
    "methods": {}
  },
  "userdoc": {
    "methods": {}
  }
}