{
  "contractName": "savings_bank",
  "abi": [
    {
      "constant": true,
      "inputs": [
        {
          "name": "",
          "type": "uint256"
        }
      ],
      "name": "savings_list",
      "outputs": [
        {
          "name": "",
          "type": "address"
        }
      ],
      "payable": false,
      "stateMutability": "view",
      "type": "function"
    },
    {
      "constant": true,
      "inputs": [],
      "name": "TotalAmount",
      "outputs": [
        {
          "name": "",
          "type": "uint256"
        }
      ],
      "payable": false,
      "stateMutability": "view",
      "type": "function"
    },
    {
      "constant": true,
      "inputs": [
        {
          "name": "",
          "type": "uint256"
        }
      ],
      "name": "WithdrwanAmount",
      "outputs": [
        {
          "name": "",
          "type": "uint256"
        }
      ],
      "payable": false,
      "stateMutability": "view",
      "type": "function"
    },
    {
      "inputs": [],
      "payable": true,
      "stateMutability": "payable",
      "type": "constructor"
    },
    {
      "payable": true,
      "stateMutability": "payable",
      "type": "fallback"
    },
    {
      "constant": false,
      "inputs": [
        {
          "name": "amount",
          "type": "uint256"
        }
      ],
      "name": "DepositFunds",
      "outputs": [
        {
          "name": "",
          "type": "bool"
        }
      ],
      "payable": true,
      "stateMutability": "payable",
      "type": "function"
    },
    {
      "constant": true,
      "inputs": [
        {
          "name": "_addy",
          "type": "address"
        }
      ],
      "name": "getBalance",
      "outputs": [
        {
          "name": "",
          "type": "uint256"
        }
      ],
      "payable": false,
      "stateMutability": "view",
      "type": "function"
    },
    {
      "constant": true,
      "inputs": [],
      "name": "getStoreBalance",
      "outputs": [
        {
          "name": "",
          "type": "uint256"
        }
      ],
      "payable": false,
      "stateMutability": "view",
      "type": "function"
    },
    {
      "constant": false,
      "inputs": [
        {
          "name": "_value",
          "type": "uint256"
        }
      ],
      "name": "WithdrawFunds",
      "outputs": [
        {
          "name": "",
          "type": "bool"
        }
      ],
      "payable": true,
      "stateMutability": "payable",
      "type": "function"
    },
    {
      "constant": true,
      "inputs": [
        {
          "name": "_key",
          "type": "uint256"
        }
      ],
      "name": "GetSavingsList",
      "outputs": [
        {
          "name": "",
          "type": "address"
        }
      ],
      "payable": false,
      "stateMutability": "view",
      "type": "function"
    },
    {
      "constant": true,
      "inputs": [],
      "name": "checkContractValue",
      "outputs": [
        {
          "name": "",
          "type": "uint256"
        }
      ],
      "payable": false,
      "stateMutability": "view",
      "type": "function"
    }
  ],
  "bytecode": "0x608060405273d19d18d98194a07f6930bc24f3ba45b8bff5a606600160006101000a81548173ffffffffffffffffffffffffffffffffffffffff021916908373ffffffffffffffffffffffffffffffffffffffff1602179055506000600255336000806101000a81548173ffffffffffffffffffffffffffffffffffffffff021916908373ffffffffffffffffffffffffffffffffffffffff160217905550610973806100ad6000396000f3fe6080604052600436106100865760003560e01c8063ea9d44ae11610059578063ea9d44ae146101ef578063ede42cf814610235578063f05fae6814610284578063f8b2cb4f146102af578063f9a960711461031457610086565b8063384ef85a146100885780637eb9f57114610103578063c67387b81461012e578063e7e0bf6214610174575b005b34801561009457600080fd5b506100c1600480360360208110156100ab57600080fd5b810190808035906020019092919050505061033f565b604051808273ffffffffffffffffffffffffffffffffffffffff1673ffffffffffffffffffffffffffffffffffffffff16815260200191505060405180910390f35b34801561010f57600080fd5b5061011861037b565b6040518082815260200191505060405180910390f35b61015a6004803603602081101561014457600080fd5b8101908080359060200190929190505050610381565b604051808215151515815260200191505060405180910390f35b34801561018057600080fd5b506101ad6004803603602081101561019757600080fd5b81019080803590602001909291905050506104c5565b604051808273ffffffffffffffffffffffffffffffffffffffff1673ffffffffffffffffffffffffffffffffffffffff16815260200191505060405180910390f35b61021b6004803603602081101561020557600080fd5b810190808035906020019092919050505061050b565b604051808215151515815260200191505060405180910390f35b34801561024157600080fd5b5061026e6004803603602081101561025857600080fd5b810190808035906020019092919050505061075d565b6040518082815260200191505060405180910390f35b34801561029057600080fd5b5061029961077e565b6040518082815260200191505060405180910390f35b3480156102bb57600080fd5b506102fe600480360360208110156102d257600080fd5b81019080803573ffffffffffffffffffffffffffffffffffffffff1690602001909291905050506107c4565b6040518082815260200191505060405180910390f35b34801561032057600080fd5b50610329610812565b6040518082815260200191505060405180910390f35b6004818154811061034c57fe5b906000526020600020016000915054906101000a900473ffffffffffffffffffffffffffffffffffffffff1681565b60025481565b60006103ad823073ffffffffffffffffffffffffffffffffffffffff163161083690919063ffffffff16565b5060008290503373ffffffffffffffffffffffffffffffffffffffff166108fc849081150290604051600060405180830381858888f193505050501580156103f9573d6000803e3d6000fd5b50600381908060018154018082558091505090600182039060005260206000200160009091929091909150555061047883600560003373ffffffffffffffffffffffffffffffffffffffff1673ffffffffffffffffffffffffffffffffffffffff1681526020019081526020016000205461083690919063ffffffff16565b600560003373ffffffffffffffffffffffffffffffffffffffff1673ffffffffffffffffffffffffffffffffffffffff168152602001908152602001600020819055506001915050919050565b600080600483815481106104d557fe5b9060005260206000200160009054906101000a900473ffffffffffffffffffffffffffffffffffffffff16905080915050919050565b6000803411610582576040517f08c379a00000000000000000000000000000000000000000000000000000000081526004018080602001828103825260198152602001807f73656e742076616c75652063616e6e6f74206265207a65726f0000000000000081525060200191505060405180910390fd5b8134146105f7576040517f08c379a00000000000000000000000000000000000000000000000000000000081526004018080602001828103825260158152602001807f496e636f727265637420616d6f756e742073656e74000000000000000000000081525060200191505060405180910390fd5b3073ffffffffffffffffffffffffffffffffffffffff166108fc349081150290604051600060405180830381858888f1935050505015801561063d573d6000803e3d6000fd5b50610653346002546108bf90919063ffffffff16565b60028190555060043390806001815401808255809150509060018203906000526020600020016000909192909190916101000a81548173ffffffffffffffffffffffffffffffffffffffff021916908373ffffffffffffffffffffffffffffffffffffffff1602179055505061071182600560003373ffffffffffffffffffffffffffffffffffffffff1673ffffffffffffffffffffffffffffffffffffffff168152602001908152602001600020546108bf90919063ffffffff16565b600560003373ffffffffffffffffffffffffffffffffffffffff1673ffffffffffffffffffffffffffffffffffffffff1681526020019081526020016000208190555060019050919050565b6003818154811061076a57fe5b906000526020600020016000915090505481565b600080600160009054906101000a900473ffffffffffffffffffffffffffffffffffffffff1673ffffffffffffffffffffffffffffffffffffffff163190508091505090565b600080600560008473ffffffffffffffffffffffffffffffffffffffff1673ffffffffffffffffffffffffffffffffffffffff16815260200190815260200160002054905080915050919050565b6000803073ffffffffffffffffffffffffffffffffffffffff163190508091505090565b6000828211156108ae576040517f08c379a000000000000000000000000000000000000000000000000000000000815260040180806020018281038252601e8152602001807f536166654d6174683a207375627472616374696f6e206f766572666c6f77000081525060200191505060405180910390fd5b600082840390508091505092915050565b60008082840190508381101561093d576040517f08c379a000000000000000000000000000000000000000000000000000000000815260040180806020018281038252601b8152602001807f536166654d6174683a206164646974696f6e206f766572666c6f77000000000081525060200191505060405180910390fd5b809150509291505056fea165627a7a7230582041ac50bf87ab2ada54395826b7c4e3d2ecaaa0eee30dad7bc833133669467daa0029",
  "source": "pragma solidity >=0.4.21 <0.6.0;\r\n\r\nimport \"../open_zepplin_contracts/math/SafeMath.sol\";\r\n\r\n\r\n//eth_savings_bank\r\n    contract savings_bank \r\n    {\r\n     using SafeMath for uint256;\r\n    \r\n    address payable saver;\r\n    \r\n    address payable store = 0xD19d18D98194A07f6930BC24F3ba45B8BFF5A606;\r\n    \r\n    uint256 public TotalAmount = 0;\r\n    \r\n    uint256[] public WithdrwanAmount;\r\n    \r\n    address[] public savings_list;\r\n    \r\n    mapping(address => uint256) checkBalance;\r\n\r\n    constructor()public payable{\r\n    saver = msg.sender;\r\n    \r\n    }\r\n\r\n    modifier checkSentValue()\r\n    {\r\n        require(msg.value > 0, \"sent value cannot be zero\");\r\n        _;\r\n    }\r\n        \r\n    function DepositFunds(uint256 amount)public checkSentValue payable returns(bool)\r\n    {\r\n          require(msg.value == amount,\"Incorrect amount sent\");\r\n\r\n        address(this).transfer(msg.value);\r\n\r\n        TotalAmount =TotalAmount.add(msg.value);\r\n\r\n        savings_list.push(msg.sender);\r\n\r\n        checkBalance[msg.sender] = checkBalance[msg.sender].add(amount);\r\n\r\n       //uint256 new_sender_balance = _sender.balance.sub(amount); \r\n\r\n        return true;\r\n    \r\n        }\r\n        \r\n        \r\n        function getBalance (address _addy)public view returns(uint256)\r\n        {\r\n        uint256 balance = checkBalance[_addy];\r\n        return balance;\r\n\r\n        }\r\n\r\n\r\n\r\n        function getStoreBalance() public view returns(uint256)\r\n        {\r\n            uint256 storeBalance = store.balance;\r\n\r\n            return storeBalance;\r\n        }\r\n\r\n\r\n    function() external payable\r\n    {\r\n    }\r\n\r\n\r\n\r\n    function WithdrawFunds(uint256 _value)public  payable returns(bool)\r\n    {\r\n       address(this).balance.sub(_value);\r\n        uint256 with = _value;\r\n        \r\n        msg.sender.transfer(_value);\r\n     \r\n      WithdrwanAmount.push(with);\r\n    \r\n      checkBalance[msg.sender] = checkBalance[msg.sender].sub(_value);\r\n\r\n      return true;\r\n    }\r\n\r\n\r\n    function GetSavingsList(uint _key)public view returns(address)\r\n    {\r\n    address toSee = savings_list[_key];\r\n    return toSee;\r\n    }\r\n \r\n \r\n    function checkContractValue() public view returns (uint256)\r\n    {\r\n        \r\n      uint256 bal = address(this).balance;  \r\n      \r\n      return bal;\r\n        \r\n    }\r\n\r\n\r\n\r\n }\r\n\r\n",
  "sourcePath": "C:/xampp/htdocs/PHP/CRYPTO_FRONTEND/savings_contract_one/contracts/savings_contracts/main_save.sol",
  "compiler": {
    "name": "solc",
    "version": "0.5.8+commit.23d335f2.Emscripten.clang"
  },
  "schemaVersion": "3.0.11",
  "updatedAt": "2019-12-11T12:59:34.007Z",
  "devdoc": {
    "methods": {}
  },
  "userdoc": {
    "methods": {}
  }
}